:020000040800F2
:1000000000000220E56C00088D730008937300085F
:10001000997300089F730008A57300080000000092
:10002000000000000000000000000000D1510108A5
:10003000AB7300080000000021540108B9730008E8
:10004000356D0008356D0008356D0008356D000808
:10005000356D0008356D0008356D0008356D0008F8
:10006000356D0008356D0008356D0008356D0008E8
:10007000356D0008E7730008356D0008356D000820
:10008000356D0008356D0008356D0008356D0008C8
:10009000356D0008356D0008356D0008FF730008E8
:1000A000356D0008356D0008356D0008356D0008A8
:1000B000356D0008356D0008356D0008356D000898
:1000C000356D0008356D0008356D0008356D000888
:1000D000356D0008356D0008356D0008356D000878
:1000E000356D0008356D0008356D0008356D000868
:1000F000356D0008356D0008356D0008356D000858
:10010000356D0008356D0008356D0008356D000847
:10011000356D0008356D0008356D0008356D000837
:10012000356D0008356D0008356D0008356D000827
:10013000356D0008356D0008356D0008DB7300086B
:10014000356D0008356D0008356D0008356D000807
:10015000356D0008356D0008356D0008356D0008F7
:10016000356D0008356D0008356D0008356D0008E7
:10017000356D0008356D0008356D0008356D0008D7
:10018000356D0008356D0008356D0008356D0008C7
:10019000356D000800000000356D0008356D000861
:1001A000356D0008356D0008356D0008F3730008E3
:1001B000356D0008356D0008356D0008356D000897
:1001C000356D0008356D0008356D0008356D000887
:0801D000356D0008356D0008D3
:1001E00010B5054C237833B9044B13B10448AFF371
:1001F00000800123237010BDD40100200000000006
:1002000010AD010808B5034B1BB103490348AFF318
:10021000008008BD00000000D801002010AD0108DA
:100220002DE9F8430026032881460C4690461F46D8
:1002300028BF012619D20CB9022616E00C201AF0AC
:10024000B5F8050008BF03260FD00C211AF07EF880
:100250002F602E726C604A46474941F822503A4658
:100260006368414648460FF007FE3046BDE8F2831A
:10027000032803D2404A52F8200001727047FEB5AD
:1002800000218DF8001001914FF0FF3500263A4C07
:1002900054F82600002869D0007A012866D101AA06
:1002A0006946F0B210F08EF8A84298BF05469DF856
:1002B0000000012804D0022818BF042812D03EE014
:1002C00054F8260001680A6822F480520A60016826
:1002D0000B6823F0C0030B600068016821F4C04183
:1002E00001602FE054F82600026801991368012983
:1002F0000CBF0221012161F34E331360006854F8F2
:100300002610019A036862F387130A68136008686D
:10031000036843F48053036008680168C1F38000F8
:10032000002854F82600006801780CBF01F0F7019E
:1003300041F008010170F0B2682100F035F99DF834
:10034000000098B154F826305F68019A9DF80010BB
:10035000D7F800C0F0B2E0479DF80000012818BFB0
:10036000032803D16921F0B200F01EF9761C022E99
:100370008ED92846FEBD0000F001002010B50446CD
:1003800012F002F82046BDE8104012F009B810B58E
:10039000044612F08FF82046BDE8104011F058BF17
:1003A0000FF094BE10B50FF0E7FE042400B900244E
:1003B000204610BDF6E72420704700002DE9F041EB
:1003C0000E468046706817461D46C0F3C00008B14F
:1003D000686A08B1E86B08B91B273EE0B8F1030F63
:1003E00028BF172739D24FF4946019F0DFFF0400BB
:1003F00008BF162731D04FF4946119F0A7FFDFF83A
:10040000200C414640F821402660676084F83F8216
:10041000A5603146404605F09EF807001DD12068D2
:100420004168C1F3800000286068017804D041F081
:1004300008010170012203E001F0F70101700022C0
:10044000337903F003031146404605F0ABF83179E8
:1004500001F00301404605F0D6F83846BDE8F081CA
:10046000DFF8BC1B51F8200000F24E2001884A043E
:1004700002D001884B1E038041884A0402D0418883
:100480004A1E428081894A0402D081894A1E8281A3
:1004900081884A0402D081884A1E8280C1884A0429
:1004A00002D0C1884A1EC28001894A0402D0018953
:1004B0004A1E028141894A0402D041894A1E428172
:1004C000C1894A0402D0C1894A1EC281704738B529
:1004D0000C46DFF84C1B51F82000B4F5004F39DA18
:1004E00000F24E252888410403D0288800F033F814
:1004F00028806888410403D0688800F02CF8688060
:10050000A889410403D0A88900F025F8A881A8880B
:10051000410403D0A88800F01EF8A880E8884104B0
:1005200003D0E88800F017F8E8802889410403D058
:10053000288900F010F828816889410403D068896F
:1005400000F009F86881E889410403D0E88900F0E7
:1005500002F8E88131BD214600F0A4BFDFF8C02ACF
:1005600052F820004268136861F30C33136048228C
:1005700080F840227047DFF8A82A52F8200048216E
:1005800080F84012704705F004BCDFF8941A024668
:1005900051F8223059680A68C2F38001002918BF57
:1005A00002F08ABB01F0E6BCF8B5032804460D460C
:1005B00014D2002600960023DFF8687A3E682A46A7
:1005C00021460920B047DFF8582A52F824309A68AB
:1005D000D36829462046BDE8F4401847F1BDDFF84E
:1005E000402A52F82000C160704780B5DFF8301A09
:1005F000024651F822100F2381F86A3289688A6A0C
:100600009047002002BD80B500F0FBFC516800F06F
:1006100010F911D151680B78C3F3C00100291FBF35
:1006200051680B68C3F3C031002905D0992182F8C5
:100630006A129268916A8847102002BD2DE9F04342
:1006400080460C46DFF8D80993B0414650F8215057
:10065000DFF8D419174668464C2219F07AFE05F2E5
:100660006A210026087820B968680268C2F3003061
:1006700008B9032681E0D5F804C02868DCF800E05A
:10068000426868680368C3F38000CEF3022CD5F893
:1006900004E09EF8009009F00309D208002807BF83
:1006A0000220002300200423BCF1030F0CBF4FF0F5
:1006B000080CB446B9F1020F02F001020CBF4FF072
:1006C000400EB64602431A434CEA02024EEA0202C8
:1006D00012F0030F04EB440318BF42F0100212F0B3
:1006E000050F1DF8030018BF42F0200202408242AD
:1006F0001AD1052C4E7005F297422FD00B2C10D03A
:100700000D2C29D00E2C2CD0112C0FD0122C11D046
:10071000142C11D0152C16D0162C09D0182C1BD047
:1007200021E0AF68F86AF0B9022626E0112016E051
:10073000162717E0122012E028680789C7F3800007
:1007400088B9102619E028680789C7F3C01008B9CE
:10075000102013E0152002E04F7004E00520107017
:1007600001E00E2717700DEB030047785770827871
:100770000A704046A9688A6A9047304613B0BDE8BF
:10078000F083F8B500F0D4F805F518760224B37AB2
:1007900023B96B681F68C7F300330BB9032419E052
:1007A00000230129F37217D0062921D007292DD063
:1007B00008293BD169680B78C3F3C00151B11168B6
:1007C0003160132285F898244D23B3720024A96860
:1007D0008A6A90472046F2BD69680A68C2F38001C0
:1007E0000029F7D0012185F898140722B272EDE7AD
:1007F00000F01EF801BF69680B7803F00303022BB9
:10080000E8D1116831602B22B272DFE700F010F8F6
:1008100001BF69680B7803F00303022BDAD111687A
:1008200031605D2285F898246223CEE71024D1E759
:1008300069680B68C3F302210329704770B500F0A3
:1008400045F821B959680D68C5F3003109B903228B
:1008500014E05D682E6840F204710E40B6F5407FEA
:1008600002BF2D7805F00305022D07D1012121607B
:10087000A822A27299688A6A90470022104670BD29
:1008800038B500F023F821B959680D68C5F3003177
:1008900009B9032218E0C5F30221032914D15968CC
:1008A000CD78C5F3401179B159680A68C2F3800167
:1008B000002907BF0321216004222260A821A17220
:1008C0009A68916A88470022104632BDDFF85017B7
:1008D000024651F8223003F518740222A17A7047BB
:1008E000F8B500F025F805F26A260224337823B91A
:1008F0006B681F68C7F300330BB9032416E06F68F9
:100900003F6840F204733B40B3F5407F0ED145246D
:1009100005F51173347059600024196862F3C4013D
:10092000196000227270A9688A6A90472046F2BD59
:10093000DFF8EC36044653F8245070472DE9F84FA1
:1009400080468946DFF8D806414650F8214094F8A1
:100950006A029B46002620B960680168C1F3003036
:1009600008B9032668E0C1F3022003280CD16068AF
:10097000017801F003010229B8BF01265CDB0A9D62
:1009800040F205118D4201D3022655E004F50877A7
:100990008DF80020786A20F0200078629DF8000031
:1009A000032808D004281AD006281DD008281FD0F4
:1009B0000A2822D023E004F296420C219170786A32
:1009C00040F020007862280027D0404600F01FFB4E
:1009D000B246012808BF4FF0040A002019E004F2D3
:1009E00096410D208870EAE704F296410E20F9E75F
:1009F0005B2004F296418870E5E75C20F9E7102659
:100A00001AE00AEB00021BF800102244401C82F896
:100A10001811A842F5D33D8000E03E8004F26A2020
:100A2000312280F801909DF8001084F8961402702D
:100A30004046A1688A6A90473046BDE8F28FDFF8E9
:100A4000E42B034670B552F8233003F518751024D3
:100A5000AA7A22B95A681668C6F300320AB9032482
:100A600026E0C6F30222032A18BF022420D101295E
:100A700002D002290AD018E0C6F38001A9B919688A
:100A80000A89C2F3C02181B109210AE0C6F38001BD
:100A900000291FBF19680A89C2F30031002904D058
:100AA0000A21A8222960AA72002499688A6A9047BC
:100AB000204670BD38B504460D46052D94F83F021A
:100AC0000CBF1F215E21FFF76FFD94F83F022946FE
:100AD00005F005F9EFF3108072B6002184F8781262
:100AE00080F3108831BDDFF83C1B51F820004168CD
:100AF000087800F0030070474268136861F38203CE
:100B0000136090F83F0204F063BD2DE9F041054603
:100B10001424EFF3108872B605F51A76307C00289D
:100B20003AD005F59167395C0A062DD588F310880F
:100B300095F83F0204F077FD012808BF03202ED06E
:100B400072B6307C395C41F0400139544FF4847006
:100B5000317C4143681800F27110F06001784078F0
:100B600001EB0022307C7281395C01F01F01012908
:100B700007D002290DD0042902BF132402213170AD
:100B80000AE01124002006E0395C4806DED4032484
:100B900002E012240120307088F310882046BDE85E
:100BA000F08110B50146EFF3108272B691F8780229
:100BB000B0B1401EC0B201F2894300241C54401E53
:100BC0008041C00F1B5C5C0607D5401C81F8780291
:100BD00082F3108891F83F0285E1002081F87802C5
:100BE00082F3108810BDDFF83C1A51F82020002055
:100BF000EFF3108372B692F8781229B1114491F88C
:100C000088140A0658BF012083F310887047DFF864
:100C1000141A51F8200041680868000BFDE118B172
:100C2000022805D002D305E011207047122070473A
:100C3000132070471420704770B50025064601F058
:100C40008DF90D2806F23F2401D110201EE0607BB3
:100C500098B1401E012816D9801E16D0401E25D0FE
:100C6000401E092884BF0B3801280CD9801E07D0EC
:100C7000401F08D0483806D00AE00322627016E010
:100C80000F20607013E0112000E00F2060700DE075
:100C900020785C21FFF788FC0320607040F204702C
:100CA00071680A680240B2F5407F00D015252846D9
:100CB00070BD38B50446DFF86C09224650F8225062
:100CC000052917D16868016821F010010160012031
:100CD000D5F8441260F34A2105F26A20C5F844129F
:100CE00014220023027083731E2195F83F02FFF740
:100CF0005BFC05E0D5F8440240F48020C5F84402CE
:100D00002046A96879E1704710B5044694F86A0254
:100D100020B194F83F025B21FFF746FC204600F02B
:100D20003AF860680168C1F3800000282068037900
:100D300003F003030AD094F83F020122012104F0DA
:100D400031FC6068017841F0080109E094F83F0245
:100D50000022002104F026FC6068017801F0F70110
:100D600001702068616800790A7800F0030002F0E1
:100D7000FC0210430870012194F83F0204F0AFFC1C
:100D80006068C17801F0DF01C17094F83F02BDE8EE
:100D9000104004F0E0BF7CB5044600200190002123
:100DA0006068026822F010020260204600F08DFBAD
:100DB0004FF4167104F5117019F0C8FAA56894F88B
:100DC0003F02AE69042301AA0221B0474FF08070B0
:100DD00000900423A56894F83F02AE696A46062194
:100DE000B0472068017994F83F0201F0030104F054
:100DF0000AFC206861680079CA7800F0030002F0FC
:100E0000F30242EA8002CA7073BD032100F29C40E3
:100E100019F09CBA38B5054605F23F2495F86A02E8
:100E200018B120785B21FFF7BFFB2846FFF7B3FF1F
:100E30000121284600F049FB207804F08CFF686807
:100E40000168C1F3800000286868007800F003039F
:100E5000C0F3C00205D02078012104F0A3FB0220DA
:100E600004E02078002104F09DFB3E20607031BD3D
:100E700038B5DFF8B037024653F8224065682C7861
:100E800053F8222004F00305A94228BF294661F344
:100E9000010451680C7051680B7803F00304012CB5
:100EA0000CBF0024202403F0DF0323430B7052689F
:100EB0001178BDE8344001F0030104F09DBB5849AE
:100EC000024651F8221001F51172137A092B00D154
:100ED000704710B54B681C6844F010041C60136820
:100EE00043F40033136089688A6ABDE810401047F4
:100EF00070B5DFF8303753F82040002010701578B7
:100F0000661996F889342BB16D1C1570EDB2012D60
:100F1000F5D970BD012000FA01F141F0200186F8F9
:100F2000891470BDDFF8FC2652F820000021CAB2F7
:100F3000024492F8893403F0A003202B04D0491C0A
:100F4000CAB2022AF3D37047002082F8890470479E
:100F5000DFF8D02652F82000084490F8891441F0B8
:100F6000800180F889147047F8B50C46DFF8B46644
:100F700056F82070194615464FF484731A225C43C4
:100F80003B1912FB05F55C1904F27D20BDE8F84021
:100F900019F0DFB938B50B46DFF8884654F8205011
:100FA00011464FF4847253432B4403F27920BDE879
:100FB000384019F0CEB938B500F023F800215418A4
:100FC0004B1C94F8895405F06005202D03D0D9B24C
:100FD0000229F4D331BD94F88944250607D4541866
:100FE000114494F8894444F0400481F8894492F80B
:100FF000781209B982F8783291688A6ABDE832407D
:101000001047DFF82016024651F8222070470449A5
:1010100051F8200041680868400E00F00100704758
:10102000FC010020000000205CB801082DE9F84315
:101030008CB00446002004F23F2603900F467278DD
:10104000012A4FF0020804F24E2548F21D0900F073
:101050002081182A3ED0192A46D01D2A6FD0272A6F
:1010600000F08B80282A00F09680292A00F09D80CD
:101070002C2A00F0A881302A00F037813A2A00F0AB
:1010800093813B2A00F078813C2A00F067814B2A4B
:1010900000F0C480632A00F00281642A00F0148109
:1010A000672A00F0CF80682A00F0D980742A00F007
:1010B0003081932A00F07C80942A00F07D80952A6C
:1010C00000F08780992A40F0838106212046FFF7AF
:1010D000F1FC3EE1012200921923082200F0ADF953
:1010E000002857D10720B7E0387811281FD10421F4
:1010F000204600F021FF98B1D4F808C0A88CDCF895
:101100001890C0F30233D4F87402821C30789B002C
:101110000521C84700F095F930780721FFF744FA18
:1011200000F088F9042803D000F084F9102871D168
:1011300000F087F930780821FFF736FA6AE004906A
:1011400004AB00F058F905AA0121E04704980421F6
:1011500000F022FA08B103203BE1049A0320920830
:10116000002101900092029105AB0422204600F07C
:101170009AFA00280ED10A21C7E0122070730521C7
:10118000307804F0DBFD2820707048F22D012980B2
:101190004FF02D081EE100F059F9FBD13078052100
:1011A00004F0D2FD00202880D3E000F04CF911E1DA
:1011B000204600F04FF90DE101200090952309220F
:1011C00000F03BF90028F6D1102000F00EF92221A2
:1011D0009BE0387814281DD000F02CF9032806D0A5
:1011E000042818BF0C2806D010280DD012E0204685
:1011F00000F0E1F90CE095F8240000F01F000C2845
:1012000014BF2721262100E028213078FFF7CCF9F0
:1012100000F017F900F01AF920D19AE000F0EBF88D
:1012200003AB04AA1521E0470398002800F0D08002
:10123000039A92080092002103200291019004ABCE
:101240000C22ADE0012100916823E97E182200F014
:10125000F5F8002802D10F2000F0C7F8BAE038787E
:10126000142811D0A87EE97E88420DD10C21204699
:1012700000F062FE40B100F0CBF8821C307804230D
:101280001521C84700F0DDF800F0E0F806D1112183
:1012900060E000900323102200F0CFF89AE000F005
:1012A000AFF80821E0470398192100F075F90028EC
:1012B00013D100F0B4F881220021204600F015FA85
:1012C0000028EBD1482120E000F09AF81321E047F4
:1012D0000398182100F060F9002879D100F09FF8F8
:1012E0000F2200F0A3F861210FE000F089F8092136
:1012F000E0470398072100F04FF9002868D100F07B
:101300008EF8022200F092F84F213078FFF74CF966
:1013100060E03978142919D00521204600F00CFE30
:1013200040B100F075F8021D307804230F21C84742
:1013300000F087F800F07EF8102807D130785921A6
:10134000FFF732F90020288000F07BF800F07EF8EB
:1013500040D1032171704FF000083BE000F050F8DD
:101360000D21E0470398042100F016F900282FD141
:1013700000F034F8072223E0049003AB00F03BF8C0
:1013800004AA0F21E0470398042100F005F9F8B9F9
:101390000321012201910092029004AB0522002159
:1013A000204600F080F915E000F02AF81121E0470E
:1013B0000398092100F0F0F850B900F00FF8052269
:1013C00000F034F806E030785021FFF7EDF8C0E780
:1013D0000120707040460DB0BDE8F083039B0321EF
:1013E0001B1D019000919BB270477073A5F800908F
:1013F0004FF01D087047A7683078D7F814C07047C1
:10140000A7683078D7F814C003AB04F11402704712
:10141000D4F87402D4F808C0DCF81890704703219F
:10142000039B019000911B1D9BB270470021204639
:1014300000F0AABA204600F091BD0021204600F03D
:1014400029B903223946204600F068BD2888B0F546
:10145000004F704738B5054605F23F24A96820784B
:101460008A6B90470A2802D00C280DD00EE000208D
:101470000090032303220021284600F00BF980B9D5
:101480002846BDE8324096E02A2006E068680178E8
:1014900001F00301022902D10120607031BD2A212F
:1014A000617031BD10B50246C2F30E044FF4004026
:1014B000A142B8BF501A80B210BD83685B68002B90
:1014C0001CBF90F83F021847704742681368C3F387
:1014D0000222914208D0426861F30A2313605A2124
:1014E00090F83F02FFF760B8704700004D49024690
:1014F00051F82220D2F84412C1F34041002900D013
:10150000704738B5D2F84412474C41F40031C2F864
:10151000441291688A6A90470D2000900022256845
:1015200042A300210620A84731BD014601F2522105
:101530004FF0FF304A8853041CBF4888C0F30E00A8
:101540004A89530407D04A89C2F30E02904224BF4D
:101550004889C0F30E000A88530407D00A88C2F3F2
:101560000E02904224BF0888C0F30E00704738B5C1
:1015700004460D4660680268C2F30220854204D02A
:1015800094F83F025A21FFF70FF86068016865F38D
:101590000A21016031BD000038B50022884208D21E
:1015A0001820214C25A32568009000210620A8477B
:1015B0000222104632BD10B5044660680178C1F3BE
:1015C000C000002860680AD141F008010170C1F331
:1015D000C00194F83F0204F002F8252108E001F070
:1015E000F7010170002194F83F0203F0F8FF242175
:1015F00094F83F02BDE81040FEF7D6BF00F23F204E
:1016000042788178914200D1704738B5A82A08D035
:101610008270002400940023034C01782568042084
:10162000A84731BDFC010020000000204652532095
:101630007369676E616C6C6564000000446174617D
:101640002053697A65206973206E6F7420636F720E
:1016500072656374000000000100064908BF0FF2C4
:1016600031000860704701460020034A914208BFDC
:1016700001207047000000200000413010B503F049
:101680008EFF0446FEF797FE041904F55E6010BD58
:10169000704700001CB59DF8104000930194022390
:1016A00000F023F816BDFEB5089C002510E00026CA
:1016B00000EB8507D3F800C037444FEAC60E761C0E
:1016C0002CFA0EFC042E87F812C0F1D31B1D6D1CE2
:1016D000A542ECD39DF828309DF824500193A40036
:1016E0000095A31C00F001F8FEBDFEB504469DF870
:1016F000240001901F46B8B20090164694F83F02AD
:101700000D4604F11003D2B204F01EF910280CD0DB
:101710009DF8201000910D2E034606BF022F0122D6
:1017200000222946204600F0A5FBFEBDF8B506467E
:1017300006F23F25D6F874028178C27801EB0227C1
:1017400096F8721201F01F01491E1029C7F308070D
:1017500000F2FF80DFE811F0110023003C00490097
:101760003600550030007900860061006F00FD00F2
:10177000FD00FD001A00C200930000F000F91923DB
:101780000821B04703206870472110E000F0F7F807
:1017900018231321B04703206870622107E000F08E
:1017A000EEF807230921B047032068704E212878FE
:1017B000BDE8F440FEF7F8BE00F0E1F81A230D2171
:1017C000B0475AE000F0DBF809231121B04754E09C
:1017D00030680189C1F34030002841D000F0CDF8D5
:1017E00001231021B0473A20B4E030680189C1F3E9
:1017F0004030A8B300F0C1F801230E21B0473B20D0
:10180000A8E030680189C1F3801048B300F0B5F852
:1018100002230C21B0473C209CE030680189C1F3D1
:10182000802000281EBFB0680469002C18D000F08A
:101830009EF80A2120E0B1680C69002C04D0021D3A
:1018400028783B460B21A047F1BD00F08AF81EBF67
:10185000B0680469002C03D000F089F808210BE07F
:10186000012174E000F07DF81EBFB0680469002C0F
:1018700071D000F07CF80921A04703206AE070686D
:1018800000F0E1FA66D100F067F828B3B6F872020A
:10189000C0F381112878FFF7EBFAD6F87402B46828
:1018A000D4F818C0021D28781C230421E047D6F87C
:1018B0007402B468BF08FB1F00F120022878A769F2
:1018C0001921B847D6F87402001D01F0D7F908B9FC
:1018D00044203FE00F213AE00F203BE002794079BD
:1018E00002EB0023ADF8003001219DF80000012833
:1018F00004D02CD303281BD013D328E070680268CF
:10190000C2F3800000281FBF30680289C2F3003094
:1019100000281CD000F020F808B14C2117E0062167
:101920000FE030680289C2F3C02080B1072108E0CF
:1019300070680268C2F3800048B100F00DF828B169
:101940000821304604F014FCA82100E01121697040
:10195000F1BD01206870F1BD7068C178C1F340101D
:10196000704730680189C1F3402000287047D6F8DD
:101970007402021D28783B467047D6F87402B4689A
:10198000A669021D287870473EB59DF81C409DF859
:1019900018500194009542F08002FFF7A6FE3EBD6C
:1019A0003EB5054605F58C71B5F8202205F1140009
:1019B00018F0CFFC012103200191009005F296441C
:1019C000B5F82032227895F86B121B1D9BB2284681
:1019D000FFF7DAFF88B905F510714868C0F34010C9
:1019E00048B12078042807BF74220A703920087093
:1019F00048F21D02CA81A078087302203EBD00F59E
:101A00001A710A784A704A89D10B18BFFFF78EBE47
:101A100012F4704F08BF00F001B8ECE070B5044656
:101A200004F5117504F23F2695F82E0000F01F0012
:101A3000401E17285BD8DFE800F0CE0CC4C41EC4DB
:101A4000205543313BC417BFC6B9678AB196AA7CFB
:101A5000C6B500F0F7F940F0BE8002222A722B21B1
:101A600000F0BAF89821B5E003202872322100F086
:101A7000B3F81020ABE0332199E00620287200F083
:101A8000E1F901BF20684168C1F3C000002824D0FB
:101A900030780C21FEF788FD4C2098E000F09FF88C
:101AA0001BD0082028723C2100F096F822208EE0FE
:101AB000A168C86A002810D0112129729D2086E0F3
:101AC00030782321FEF770FD2868C0F3821008B13A
:101AD0000F207CE0A168886B002874D01020287249
:101AE000932177E060680168C1F3022003286AD17E
:101AF000C1F3800010B100F072F864D007202872A2
:101B00001D217170062152E020680189C1F3C000D7
:101B100000285BD000F096F901BF20684168C1F34E
:101B2000C000002852D00A2028726321717046211B
:101B30003DE060680168C1F3800010B100F04FF82B
:101B400044D05F2028726421717060212FE02068EA
:101B50000189C1F3401018B30B2028724D2100F009
:101B60003BF8302033E020680189C1F38000002871
:101B70002CD00B202872492100F02EF860680168F3
:101B8000C1F3800008B12D2021E0112122E020685E
:101B90000189C1F3C01018B12F2018E00920287264
:101BA000012117E00F2028724B2113E059213078D2
:101BB000BDE87040FEF7F8BC00F017F809D15720D7
:101BC00005E0112003E000F010F802D10120707050
:101BD00070BD2A21717070BD3078FEF7E5BC2068B9
:101BE0004168C1F3C000002870476068017801F0C7
:101BF000030102297047FEB5054605F5127611204E
:101C000096F82A1001F01F01012905F23F2441D066
:101C1000022913D0032959D0062900F09A800729F8
:101C200000F0A680082900F0AC80092915D00A2907
:101C300000F0BB800F2900F08880FCE000F008F97C
:101C400000F0FA8000F0F9F858BBAD682078AF6971
:101C500004236A460621B84716E000F0F9F877D069
:101C600000F0EBF8E8B133600423AF682078D7F8D0
:101C700018C06A460621E047F06AAD68AF69821D68
:101C8000207804231B21B847012030710021B18145
:101C90000920D0E0686800F0D6F859D100F0CDF8FE
:101CA00008B10F20C7E0708DC0F381112078FFF7D5
:101CB000DFF8AD68708DC0F30233F06AAE69821C44
:101CC00020789B000421B0474420B4E0002101911A
:101CD00000916B46F06A8178C278AF68D7F814C07B
:101CE00001EB02260179407906EB014606EB00661E
:101CF000207801AA0321E04700980421FFF74CFC5B
:101D0000002801BF68680168C1F3022003281AD1C6
:101D1000019841F28831884215D1360F052E10D036
:101D2000082E0CD0092E04D00A2E11D1207866215D
:101D300001E020786521FEF737FC03207BE02921B4
:101D400031E0272077E003212DE0284603F08BFACD
:101D5000F7BD28680189C1F3001080B1F06AAD6851
:101D6000AE69821C207804230B21B0472C2062E04E
:101D700028680189C1F3002008B13D205BE0012102
:101D800011E068680178C1F3C00008B12A2052E070
:101D9000F06AAD68AF69821C207804231421B8472B
:101DA000132030714F216170F7BDF16A8A78CB78CA
:101DB00002EB03270A79497907EB024707EB016732
:101DC0003F0E012F02D0052F16D034E0686800F0D6
:101DD0003AF81FBF28680189C1F30030002809D0F4
:101DE00020787421FEF7E0FB0221284604F0C0F9B8
:101DF000A82020E001201EE06968CA78C2F34011E3
:101E0000C9B120787521FEF7CFFB6868C17801F071
:101E1000DF01C170172031683071090F082928BF10
:101E20000F2008D2686800F00EF811BF072048F2B2
:101E3000F410F08043206070F7BD6868C178C1F38A
:101E40004010704760680168C1F380000028704747
:101E5000F06A8178C27801EB02230179407903EBC3
:101E6000014303EB0063009368680168C1F38000DD
:101E70000028704730B51024052B00F5107507D0E9
:101E8000062B0CD0072B0FD0092B08BF09242AE002
:101E9000039828700024686820F4804002E0686895
:101EA00040F4005068601EE029B1012A08BF992063
:101EB00018D0072417E0297B182907D041680B6840
:101EC000C3F30221042903D0012A0AD10F2009E01B
:101ED000002AFBD18168486B0028F7D09221297035
:101EE00001E011202870204630BD78B58DF8001033
:101EF0008DF801200024BDF80010E60021FA06F557
:101F00000619641C022C3575F7D3002103E05C5CD4
:101F10004518491CAC759142F9DB71BD38B51546C1
:101F20000A78142A044604D0142008702046FEF7CC
:101F300038FE84F8405231BD10B503460020B3F896
:101F40007242E20B09D1C4F3023232B193F8722229
:101F500002F01F02914208BF012010BD01464FF65A
:101F6000FF70B1F8721211F4704F08BF01F01F003A
:101F7000704700002DE9F14F8CB0DFF8000B9DF8A1
:101F8000301050F8214004F23F26707848282AD1BA
:101F90002046FEF700FF2046FEF737FF2068037952
:101FA000307803F003030022002103F0FBFA60689D
:101FB000017801F0F701017020680179606802780A
:101FC00061F3010202706068C17801F0DF01C17045
:101FD0000121307803F083FB307803F0BCFE3E2013
:101FE000707000F098FD04F511773868C0F38040F8
:101FF00030B1386820F480203860642100F07BFD27
:102000002046FEF782FD03288DF80C0004F2974B62
:1020100008BF012500F02E8560680168C1F300301B
:10202000002800F0F0803868022504F51A7AC0F321
:10203000404040B1A72070700020396821F4003181
:10204000396000F066FD9AF802200F2A18BF142AA2
:1020500004D100F06BFD002000F05BFD00F02AFDD4
:102060000ED160680178C1F3C000BAF80A10C1F35C
:102070004011884204D1922200F058FD00F04BFD3F
:102080007078020004F5127148F2F41848F21D0944
:1020900000F0BD80421E39D0921E012A40F22C83EE
:1020A000921E00F033820A3A00F03582521E00F090
:1020B000C682521E00F0CD82D21E00F06682121F30
:1020C000012A23D9921E00F0F482D21E1ED0521E85
:1020D00000F0B583121F00F02583521F022A15D984
:1020E000D21E00F00283521E00F0FF83521E0DD05C
:1020F000921E00F03D84521E012A07D9921E00F064
:102100006584083A00F04484521E032A40F2628437
:10211000121F00F08D80921E00F06282D21E00F02D
:102120009A80521E00F01E81521E00F02881521E1D
:1021300000F06381521E00F0BC81921EAED0921E50
:10214000E4D0521E00F0B683521E022A40F2698487
:10215000D21E00F09682921E0FD0521E00F03083E5
:10216000521E032A09D9121F00F07783521E00F075
:102170000583521E01D0921E022A40F25784921FFC
:10218000022AC3D9D21E00F0C183521E00F0CF83B1
:10219000521E012ABAD90D3AB8D0123A00F02F8453
:1021A0000C3A3CD0521E022AB0D9521F00F08E8247
:1021B000521EABD0521E00F0A981521E00F0F881D1
:1021C000521E082A40F20B840B3A00F01E84521E65
:1021D00003A9204600F02F8402F07AFA054600F0A9
:1021E0009AFC9DF80C00142800F028842046FEF785
:1021F00023FD152802D1727800F098FC00F08BFCCA
:10220000002500F030BC4FF0FF3500F033BC00F08B
:1022100061FC5F2100F06FFC4FF0FF35DFE700F05D
:1022200059FCA068416B0029F6D030788847F3E765
:102230006068017801F00302012A0CBF002220220D
:1022400001F0DF0111430170A7F80A804FF4FA751D
:1022500043207070C3E700F03DFC00F02BFC7AD106
:1022600000F03EFC34D0BAF80A10C80B2DD001F0B3
:102270001F01112929D1DAF80C00001D00F0FEFC25
:1022800018B10F20707000251FE0D4F808C0DAF8EC
:102290000C103078DCF818800A1D1C230421C0477C
:1022A000DAF80C008178C278D4F808C0DCF818801D
:1022B00001EB0223DB055B0E00F12002DB1F30780F
:1022C0009B001921C04700F02EFC00F009FC42D110
:1022D00001212046FFF730FE00283CD000208BF87B
:1022E0000500396841F004013960DAF80C1088788B
:1022F000CA780B79497900EB022000EB034000EB30
:10230000016061680A6822F000720A6021680A7A36
:10231000D10707D5C0F3006020B16068016841F0C3
:1023200000710160BAF80A00C0F381119DF8300015
:10233000FEF79EFDD4F808C0BAF80A00DCF8188051
:10234000C0F30233DAF80C00821C30789B000421C1
:10235000C04700F0E8FB00F0A9FB02D10F2171702B
:1023600000253CE7A36830781D6A6A46A8470098B4
:10237000396860F3C401396045227270F0E7606823
:10238000C278C2F34010F8B100207968C200D14091
:102390002218401C04289174F7D300F07CFB02AB98
:1023A00004F116021C21C0473868C00B00F0010080
:1023B0004621019000910A23092200212046FFF7BF
:1023C00094F9002818D110E03868C00B00F0010023
:1023D000029046220120019200900B460222002129
:1023E0002046FFF760F9002806D1386820F4004045
:1023F0003860A7F80A901D25F1E600F05BFB54D188
:1024000000F084FB022818BF0328814623D004284B
:1024100018BF0C2834D160680168C1F3022003287A
:1024200012D043207070A7F80A804FF4FA756068E4
:10243000C178C1F3401028B1B9F10C0F02D10F20BF
:1024400070700025727819E0B9F10C0FF8D14920AD
:1024500070700025EBE76068C178C1F3401008B1E7
:1024600048F29D38A7F80A8000F03AFB0CBF4FF401
:10247000FA7540F29D3500F041FB472200F056FB13
:10248000B9F1020F0CD0B9F1030F0BD0B9F1040F61
:1024900004D0B9F10C0F08D1032104E0022102E0BD
:1024A000042100E0012100F026FB00F0FFFA51D1E9
:1024B00054E700F0FFFAF8D100F028FB0628F4D129
:1024C000032100F01CFB30781021FEF76DF800F0BE
:1024D000FBFA1ABF2068016801219DF8300003F063
:1024E000FEF8002038823868C0F3C100032801BF1D
:1024F0006068C178C1F34010002804BF4AF2283058
:102500003882032200F012FB0025CEE703A9204603
:1025100001F0BBFC62E600F0D7FA1EBFA068026BB8
:10252000002A02D030780021904700F0D3FA2046EC
:102530000121FEF7CAFF9BF8050003280BD338687A
:10254000C0F3800000281EBFA168486B002871D12D
:102550000021717043E6401C8BF8050005212046E0
:10256000FEF7A8FA48F2E8307881012200F0CAFAB2
:102570009B207070012100F089FA984700250128FE
:1025800002D1032200F0BEFA29E600F09DFA1EBF38
:10259000A068026B002A02D0307800219047002208
:1025A00000F0B0FA48F2E83078819B217170E1E7E1
:1025B00000F06CFA0021984701280DD148F6E3009D
:1025C000788169219DF83000FDF7EEFF40207070A2
:1025D000132100F090FA002500F068FAD4D119E038
:1025E00000F054FA01219847012810D12046FEF747
:1025F0008BFB052200F086FA9DF830006821FDF77C
:10260000D3FFA7F80A8043204FF4FA75707000F0EA
:102610004DFA35D1062200F075FA9BF80500032823
:10262000FFF49CAE3868C0F3800000281EBFA1688C
:10263000486B002840F0C2800021717090E60020B5
:102640000090032300F06AFA002819D101203872A3
:10265000FAE560680168C1F3022004283FF47EAE09
:102660000020009050239AF801100D2200F058FA33
:10267000002805D1032000F014FA302100F03BFAC5
:10268000ADE59DF80C00142812D09AF800109AF8C5
:10269000010081420CD100F039FA032808D1012051
:1026A0003872A7F80A80432200F040FA4FF4FA7516
:1026B000FBE6012100914323072200F030FA0028B5
:1026C00012D1062000F0EDF90B21D7E700F0F2F966
:1026D0000AD100F01BFA062806D130782C21FDF72C
:1026E00063FF032200F022FA79E500200090032323
:1026F000042200F014FA72E504280ED0002038728B
:1027000004217170202100F0F6F900F0E9F919BFF9
:1027100048F2DB1038830021398303A9204600F0FA
:1027200009FA5BE5A068816829B39DF83000884705
:102730000A2802D00D2819D01DE000F0D7F9012297
:102740000021E04700200090592300F0E7F900281D
:102750000BD108203872062200F0B0F90021A368DE
:1027600030785D6AA84700F08BF938E500200090CA
:1027700003230C22BDE72A207070F1E500F09AF9DE
:102780000ED100F0C3F906280AD1387A092804D0FE
:1027900000F0ACF909220021E047532200F0C6F90D
:1027A00000F084F9E1D1A36830785D6A0F2200213E
:1027B000A847A168486B00283FF4D0AD9221CEE530
:1027C00000F09CF900F092F90A220021E0476068CD
:1027D000017801F00301022904BF307802F06CFF98
:1027E00001212046FEF788F9387A092804D000F044
:1027F0007DF90B220121E047002000905B23062297
:1028000000F08DF948B9A36830785D6A0C22002188
:10281000A84748F214007881142570785B280DD001
:1028200000212046FEF768F900F060F90622012138
:10283000E047072200F05AF90021E047CFE40120E9
:10284000009058230A2200F06AF920B9082000F00D
:1028500028F90222EEE70F22ECE700F02BF909D16C
:1028600000F054F9032806D004281AD00C2816D0FA
:10287000102818D078E000F021F900F001F9387A3A
:10288000092804D000F032F906220021E04700F0C8
:1028900035F930783A21FDF787FE592207E03B21D0
:1028A00002E0162100E0172100F025F9032200F0D4
:1028B0003DF959E00021049104AB00F0ECF805AAC1
:1028C000C04704980421FEF767FE08B10320C0E466
:1028D000049A03209208002101900092029105AB16
:1028E00001222046FEF7DFFE79E4002003210122C9
:1028F00002900191009204F51973062200212046EE
:10290000FEF7D1FE0028EFD15D21B7E6012000904F
:102910006623142200F003F9002807D1A7F80A90D3
:102920004A2100F0E8F80B201D25387257E400F02A
:10293000C1F819D1BAF80A10C80B15D001F01F015F
:102940000C2911D1DAF80C00D4F808C0DCF8188092
:10295000021D307804230A21C047032200F0E6F864
:1029600030784B21FDF720FE00F0A0F8DED12BE0FF
:102970000121009139239BF8002000F0D0F80028B5
:10298000D4D19BF801003872442100F0B4F830E54E
:102990009DF80C00142814D0BAF80A00C00B07D018
:1029A0002046FEF7C3FE727800F0C0F80020788160
:1029B00000F0ACF8102804D1032200F0B7F8002092
:1029C000788100F073F8B1D10321C8E42046FEF706
:1029D000E7FFA6E603A92046FEF728FBA1E603A928
:1029E000204601F050FB054600F06EF80EBF0121B5
:1029F000206801689DF8300002F071FE96E79DF8AE
:102A00000C10204602F0E4FB90E7002000905823D1
:102A1000132200F084F800287FF4E1AB092038721B
:102A2000E7E403A9204601F0C5F87AE603A92046A9
:102A300001F031F975E603F0C0FB72E63868C0F3C7
:102A4000403080B13868C0F3803038B130785B21D5
:102A5000FDF7AAFD386820F48040386003217170CA
:102A600000F059F80125386820F40050002D386036
:102A70003FF4D2AA28460DB0BDE8F08FFC0100203B
:102A800048F2843078814FF461757047A2689DF8F0
:102A90003000D36B7047D4F808C03078DCF814806D
:102AA00070473872A7F80A901D2570477889B0F5ED
:102AB000004F70479DF80C0011287047606801684E
:102AC00041F010010160704760680168C1F3C030D7
:102AD000002870476068016821F0100101607047AC
:102AE0006068C178C1F3401000287047A36830784F
:102AF000D3F824C070473078FDF756BD0421204636
:102B0000FEF7E3BC00212046FEF7D7BC2046FFF7C6
:102B100025BA8AF802002046FEF770BD0322002184
:102B20002046FEF7B7BD01203872442203A9204693
:102B3000FFF7F4B92DE9F8430F46022481463878AF
:102B4000142809F23F2608D04846FEF758FF72784D
:102B500039464846FFF7E2F98AE009F5117709F2AC
:102B60009C483968C80C21D0B889B0F5004F10D105
:102B70000F2171700020009031783F4D2E680023A6
:102B800078220920B04798F80000401C88F800001F
:102B90006EE0B9F87202C0F3422000EBD14033225C
:102BA00010FB02F040F40040B88161E0388BB0F5D2
:102BB000004F07D1A82171704846052103F0D8FACB
:102BC000002455E0388AB0F5004F06D145227270D6
:102BD00041F40041002439604AE03078FEF703F800
:102BE00009F2692568BB687858B3D9F80400007801
:102BF00000F00301012908D000F00300022820D1D1
:102C0000307802F066FD01281BD1A878287068781A
:102C10007070452804D1386840F40040386006E000
:102C2000A82804D1F969C9B2484603F0A1FA0020E6
:102C3000687000243868F969396240F4804038606F
:102C400016E0F889B0F5004F09D10021F98105217E
:102C500098F80200401C88F80200717008E04846AD
:102C6000FEF763FC0446687810B1022C28BF0224EA
:102C70002046BDE8F28300000000002070B500226D
:102C80000023C418C15C6578C61801EB0524C5187B
:102C9000B178EE7804EB014404EB0664A10F06D191
:102CA000C4F3892140F29114A142A8BF02221B1D46
:102CB0001C2BE6DB104670BD2DE9F04F0446294879
:102CC00085B0214650F8217007F23F2250784828FD
:102CD0002CD13846FEF75FF83846FEF796F838688C
:102CE000037907F23F2503F003032878012201212D
:102CF00002F058FC7868017841F0080101703868EA
:102D000001797868027861F3010202707868C1780D
:102D100001F0DF01C1700121287802F0E0FC287881
:102D200003F019F80220687000F0DCFED7F84402C6
:102D300007F23F26C0F3804040B1D7F8440220F4A8
:102D40008020C7F84402642100F0A2FE3846FDF757
:102D5000DCFE03288DF80C0006D1012005B0BDE88B
:102D6000F08F00BFFC0100208DF80D4007F51A79A7
:102D700007F5117448F21D0A48F21E0B78680168C5
:102D8000C1F30030002800F012812068C0F34040F9
:102D900098B19DF80D0002F09EFCA62070700921EC
:102DA0002172002089F8020048F21100216821F404
:102DB00000312160E08200F095FE99F802200F2A90
:102DC00018BF142A4FF0020807D100F08FFE002030
:102DD00089F80200206200F085FE9DF80C001128A1
:102DE0000ED178680178C1F3C000B9F80A10C1F3B8
:102DF0004011884204D1922200F078FE00F072FE69
:102E00007078010007F2974500F0D580411E6FD021
:102E1000491E00F0E180491E012940F2B384891E59
:102E200000F01881491E00F01A81491E00F01F8130
:102E3000491E00F09081491E00F00682C91E00F074
:102E40004C82491E00F05982491E00F0B980491E8B
:102E500000F0CC82491E00F09382491E00F095825A
:102E6000491E00F0A082491E00F02D83491E00F08B
:102E7000E882491E00F0EF82491E00F08081491E61
:102E800000F00483491E012932D9891E00F04083D5
:102E9000491E00F04A83891E2AD0491E00F0E783AC
:102EA000491E00F0F783491E00F01F84491E00F000
:102EB0003F84491E00F06883891E00F08883491E04
:102EC00000F09E83491E00F0B383491E02290FD9EA
:102ED000C91E00F07883491E00F0DF84491E07D028
:102EE000491E00F0EB84491E00F00A85491E0129A5
:102EF00040F23B85891E00F03485083900F01085CA
:102F0000491E0329F4D91139F2D0491E00F0FB8083
:102F1000491E022940F25885491F09D0891E0329FC
:102F200006D9891F04D0491E00F01684491E0229C3
:102F300040F24F85891F012984BF491F0129D7D934
:102F40000D39D5D0123900F039850C393BD0491EE6
:102F50000229CDD9C91E00F0EF81491E00F0FF8182
:102F6000891EC5D0491E75D0891E082940F20285E8
:102F70000A3900F00F85891E03A9384600F02E8516
:102F800001F0A6FB804600F0ADFD9DF80C00142872
:102F900000F028853846FDF74FFE152801D100F0D6
:102FA000A4FD00F09FFD4FF0000800F031BD4FF090
:102FB000FF384046D2E600F07FFD5F2100F068FD5B
:102FC0004FF0FF38DFE700F077FDB868416B00296C
:102FD000F6D030788847F3E700F063FD1ABF386811
:102FE000016801219DF80D0002F079FB78680178F5
:102FF00001F00302012A0CBF0022202201F0DF01B0
:10300000114301700020A871012100F060FD786873
:103010000168C1F3001038B148F2140060814FF02C
:10302000140806217170AEE7C1F3C03000280AD041
:10303000386801788A0740F1A080E979142980F086
:103040009C80F868002800F09880491CE9710520F0
:10305000707098E703A9384600F017FF92E700F078
:1030600007FD90D1072171704FF000088BE72068B1
:10307000C0F3800018B1207A411E8941C90F38463B
:1030800000F03DFD052804D0092818BF1C28EDD00C
:1030900012E0012020720020216841F0040121602B
:1030A000A8716871A4F80AA016204FF01D0870706E
:1030B0000F2100F0EDFC66E72068C0F3800080B9C6
:1030C000A879332819D248F29601618108207070DE
:1030D0004FF09608E189480402D0E089C0F30E0859
:1030E00051E77868017801F00301022904BF3078C4
:1030F00002F0E4FA11207070B6E730782121FDF774
:1031000053FA0020A4E7384600F0F9FC052802D065
:103110001C28E5D01BE000F0CAFC68B199F80A0051
:1031200000F01F00072807D130780F21FDF73CFA87
:1031300000202072032175E700F0C8FCA4F80AA063
:103140000F2100F0A5FC0120207216216AE7002063
:103150002072112166E7E089B0F5004F02D100F03E
:1031600077FC717000F084FCBAD138684168C1F313
:10317000C01010B1A879401CA871072068E700F0C2
:1031800073FC40F02F8100F09DFC002518B100F089
:103190008EFC00B90225092100F095FC00281FBF14
:1031A0007868C178C1F34010002818BF022501D10A
:1031B000002D3ED0D9F80C104A19C91C107853784C
:1031C000927800EB03204B5D00EB024000EB0360C4
:1031D000606039680A7AD10707D5C0F3C05020B1C2
:1031E0007868016841F0007103E07868016821F0B7
:1031F00000710160B9F80A00C0F381113078FDF761
:1032000037FEBD683078D5F818C0042307F5127270
:103210000621E04700F04BFC48B1D9F80C00BD682E
:10322000D5F818C0821D307804231B21E0470922FD
:10323000D6E000F047FC28B9092100F044FC002842
:1032400000F0D0800F22CBE0BA683078D36901A9B2
:1032500098470A2812D00B2832D00D2878680168C8
:10326000C1F3022031D103280CBF03230E23002019
:1032700000900C22002100F03FFC84E6A4F80AB084
:103280004FF01E0878680168C1F3022001280CD0B5
:103290000198032802BF2068C0F3C100032804D1AD
:1032A0004FF4004060814FF00008002000900C2394
:1032B00000F020FC0198216860F3C401216062E6FF
:1032C000002200920C230222D4E703280CBF032320
:1032D0000E23002000900422CCE700F0C9FBEED1C1
:1032E00000F0F4FBB86801680029E8D0307888471E
:1032F000002840F02F820D20AAE600910323062229
:1033000000F0FAFB002816D1032100F0E0FB307832
:103310001021FDF749F9002020822068C0F3C10088
:10332000032801BF7868C178C1F34010002802D19A
:103330004BF2B060208226E6012100919723022201
:1033400000F0D9FB0028F6D184F80880292100F08C
:103350009FFB48F22620608140F2262813E600F009
:1033600087FBFBD130782A21FDF71EF90020009061
:103370000323062200F0BFFB0028EFD12E2198E6A0
:10338000002000900723032275E7002000901223FD
:1033900099F801100D2200F0AFFB0028DED100F0FB
:1033A0005EFB302185E69DF80C0014281AD099F8B0
:1033B000001099F80100814214D100F08BFB032822
:1033C00010D130783121FDF7EFF899F8000010B9ED
:1033D0000721717003E0032070704FF000087278CD
:1033E00000F084FB00F044FBB8D1B3E178680178C9
:1033F00001F00301022904BF307802F05FF90521D2
:103400003846FDF757FB00F057FB00216879401C58
:1034100068710222206820F4C060206089F80210E0
:1034200020F4E070206000F059FB9DF80D00692148
:10343000FDF7BAF848F21B0060814FF01B08152118
:10344000F0E57868017801F00301022904BF3078C3
:1034500002F034F9E9E700F00BFB58D169792068F4
:10346000032903D3C0F3800038BB2AE048F28A2145
:10347000618117227270C0F34120421E9241D20F27
:1034800000F02CFB032200F029FBEDE5BA689DF863
:103490000D00D36B9847012806D148F22030608197
:1034A00013214FF44878717000F0E2FA2FD100F048
:1034B00014FB2068C0F3800018B1B968486B00287D
:1034C00020D10021AEE500F0D3FA20D1042200F093
:1034D00005FBBA689DF80D00D36B012198470128C0
:1034E0000BD13846FDF710FC9DF80D006821FDF763
:1034F0005BF8052200F0F2FA3FE600F0EEFAB96858
:10350000486B002840F058820021717088463AE5E7
:10351000012000901B23072200F0EEFA0028F6D1CC
:10352000062000F09BFA0B21C3E500F09DFA26D19E
:10353000012100F0C8FA90B1BD68B9F80A00D5F8C9
:1035400018C0C0F30233D9F80C00821C30789B00FD
:103550000421E047032200F0C9FA0D210DE000F03C
:10356000B9FA042818BF102809D10320707003226B
:1035700000F0BCFA4FF000080E2100F089FA00F0CC
:1035800077FA1BD103216EE5B8688168D9B130782C
:1035900088470A2802D00D2811D014E0A4F80AB0F8
:1035A00000200090242300F0A5FA00284FF01E0808
:1035B00004D100F03FFA01220121A847E3E40020F2
:1035C0000090032355E600200090032383E600F0DB
:1035D0004FFAF3D100F07AFA00F05DFA062200F01B
:1035E0002DFA00F04FFA3078002101F0F1FF0020B1
:1035F00000902523062200F07EFA0028DED18CE020
:1036000000F032FA06D100F065FA062802D126222F
:1036100000F06CFA00F02CFAD0D1BB68586B00288F
:1036200040F0CA8130785B6A0A220121984791E014
:103630003846FDF761FA00F006FA0D220021C04776
:1036400030781421FCF7B0FF00F0FDF90E220021C4
:10365000C0477868017801F00301012904BF9DF893
:103660000D0002F03CF83846FDF7D4FBFCE40120E5
:1036700000901F230A2200F03FFA002857D10820AB
:103680002072A4F80AA0022200F0D8F94FF01D0819
:1036900039210EE500F0E8F923D100F01BFA0328E8
:1036A00006D0042811D00C2808D0102811D018E01A
:1036B00030783A21FCF778FF202210E000F0BAF9C8
:1036C00005220121A8473B2106E000F0D5F916218B
:1036D00002E000F0D1F9172100F0DAF9032200F03E
:1036E00005FA00F0C5F922D14CE700F0D4F9207AB0
:1036F000092804D000F09EF906220121A84700F015
:10370000C1F93078002101F063FF002000902123EF
:10371000062200F0F0F9002809D100F094F90822FF
:103720000121C04748F2B81060814FF4DC782AE4E8
:1037300000F09AF906D100F0CDF9062802D1262230
:1037400000F0D4F900F094F9F1D1B968486B002881
:1037500040F032810F2186E400F08AF9E7D100F0D1
:1037600069F90E220121A8477868017801F0030168
:10377000022904BF307801F0A1FF3846FDF74AFB6B
:10378000152196E4032818D1002020727968087862
:1037900000F00300022804BF307801F08FFF0420FE
:1037A0007070672100F074F900F081F9002819BFEA
:1037B00048F26B302083002121839DF80C001428EF
:1037C0000AD000F074F908B1002020833846FEF7D3
:1037D00016F900F08AF9AAE72068C00C26D0A08963
:1037E000B0F5004F10D10F2171700020DFF8348246
:1037F000D8F800C000900023317878220920E047F3
:103800006879401C68712FE400F00EF9332001EB59
:10381000D24111FB00F343F40043A38100F004F90B
:1038200001EBD24148431FFA80F880E7208AB0F5C7
:10383000004F08D0208BB0F5004F06D100F037F9CB
:1038400000283FF4A0AB0F2055E43078FDF7CBF90A
:10385000B8B999F80200A0B199F8031089F80110DD
:103860007070002289F80220A828E169216222688C
:1038700042F480422260C6D1C9B2384602F078FCD8
:10388000C1E7E089B0F5004F03D1002100F0E0F876
:1038900061E73846FDF749FEA2E00020032101223E
:1038A00002900191009207F5197306220021384613
:1038B000FDF7F9FE00282CD15D2162E7002002907F
:1038C00002ABBD689DF80D00D5F814C004AA0A210A
:1038D000E04700F06BF988B9029A04A907F11400D7
:1038E00016F037FD002003210190009108230C22DF
:1038F00000213846FEF748F84C2142E70120FBE45E
:103900000121009139232A7899F8031000F0F4F886
:1039100000287FF438AB687800F0A0F8442130E745
:1039200000F0A6F804BF9DF80C0014283FF42AAE5E
:103930009DF80C0014283FF426ABB9F80A10C80B08
:1039400003D03846FDF7F2FE43E701F01F011029CE
:103950007FF418AE032200F0C9F8002060815921DD
:103960000FE73846FEF71CF83AE003A93846FDF7A2
:103970005DFB35E003A9384600F085FB804600F08A
:1039800090F80EBF0121386801689DF80D0001F024
:10399000A6FECCE600F068F80AD100F09BF81328E8
:1039A00006D100F0A2F800200090202300F0A2F839
:1039B000E08AB0F5004FACD19221CCE69DF80C1016
:1039C000384601F005FCB2E603A9384600F0F2F8EB
:1039D00006E003A9384600F05EF901E002F0EDFBD5
:1039E000FFF7D0BA2068C0F3403088B12068C0F338
:1039F000803038B130785B21FCF7D6FD206820F4A8
:103A0000804020600321717000F06CF84FF00108D5
:103A1000206820F40050B8F1000F20603FF4AEA9F8
:103A2000FFF7C7BA00000020B9F80A102268C1F3F6
:103A300042217047BB6830785D6A7047BB68307858
:103A40005D6A01212847BB683078D3F8248070472D
:103A5000E1810521E879401CE87170472072A4F8E3
:103A60000AA04FF01D0870479DF80C001128704700
:103A70006089B0F5004F7047BB6830785D6A0422FA
:103A800001212847BB6830785D6A07220121284759
:103A90003078FCF789BD7868016841F01001016059
:103AA000704778680168C1F3C030002870477868B3
:103AB000C178C1F3401070477868016821F01001A7
:103AC0000160704702213846FEF736BA04213846B5
:103AD000FDF7FBBC3846FEF741BA06220121384605
:103AE000FDF7EBBC3846FDF789BD727803A938466F
:103AF000FEF714BA032200213846FDF7CBBDFEB510
:103B00000446002002900D466068C1781026C1F37B
:103B1000401000281EBF94F8720200F01F00072812
:103B200010D100F035F804F112020021E04700F056
:103B30003DF800282AD102980195801C00F02FF84A
:103B400001221DE04FF4827104F1140016F0FEFB17
:103B500000F01EF804F114020021E04700F026F8FE
:103B6000A0B9A66894F83F02776902AB04F130026D
:103B70001721B84702980195203000F010F89122E3
:103B800094F83F02002101F0DFFE06463046FEBDFC
:103B9000A76894F83F02D7F814C002AB70470290B0
:103BA00004F11003029880B200907047029804213B
:103BB000FDF7F2BC2DE9FF410224054605F23F2640
:103BC000884670784D2805F24E2704D05AD34F28E6
:103BD00045D021D356E068680178C1F3C00020B910
:103BE00030786A21FCF7E0FC36E04E210122029099
:103BF0000191009205F51873082200212846FDF76F
:103C000052FD00283ED130786B21FCF7CDFC48F204
:103C10001D0038801D2435E098F80010112904BFDC
:103C2000B88C10F4704F13D100F01F00032804D09B
:103C3000042818BF102802D00AE06C2100E06D2192
:103C40003078FCF7B1FC032241462846FEF766F9BE
:103C50003888B0F5004F15D10321717012E0A868C3
:103C6000026C04274AB13078012190470A2808BF26
:103C7000032702D0012808BF10270020009003234B
:103C800000F004F8204604B0BDE8F0813A46002177
:103C90002846FDF7FFBC2DE9FC41054605F23F260D
:103CA0000224727805F24E27542A12BF572A0020A8
:103CB00038813889B0F5004F03D19221717000240A
:103CC000A4E0522A73D0542A0FD0552A7CD0562A09
:103CD0001AD0572A4BD05A2A00F085805C2A3CD053
:103CE0005D2A28D05E2A5DD090E001200090562306
:103CF0000E22FFF7CCFF0028F6D11420707348F293
:103D00001D0139801D2481E00878112804BFB88C7A
:103D100010F4704F74D100F01F00032802D0042863
:103D200007D06DE02846FEF7F9F8284600F071F854
:103D300066E0922261E00878112861D1BA8C4FF2D6
:103D40001F000240062A61D148F20A023A80284642
:103D50005222FEF7E3F80A2458E0002000905A238C
:103D60000622FFF794FF48F22C1038804EE0A86836
:103D7000026C10274FF003083AB1307802219047C7
:103D80000A2804BF03274FF05A080020009043463A
:103D9000FFF77CFF002808BF032F37D1284600F02B
:103DA00038F833E030786E21FCF7FEFB09E0398803
:103DB000B1F5004F2AD1A868026B12B13078012109
:103DC00090475520707021E07889B0F5004F1DD1E3
:103DD00030786F21FCF7E8FB0020009003230F22CE
:103DE000FFF755FF12E00878112801BFBA8C4FF297
:103DF0001F0002400F2A03D103222846FEF78EF847
:103E00003888B0F5004F04BF922171702046BDE89C
:103E1000F68170B5064606F24E257068027806F205
:103E20003F2448F22C11C2F3C000E0B129816E2179
:103E30002078FCF7B9FB48F2C80169817068016815
:103E4000C1F3C03050B1B068026B12B120780021CC
:103E5000904748F20A002880522114E048F27D0081
:103E600028805D210FE070680268C2F3C03040B165
:103E7000B068026B12B12078002190475C2060701E
:103E800070BD29805A21617070BD2DE9F0478CB05A
:103E90000227804608F23F2608F51175707805283C
:103EA00008F28C4402D09A285FD0DAE0D8F80420D7
:103EB000117801F00301404600F0FEF92268520932
:103EC000520142F4004242F0010222602346D8F837
:103ED0000400017849F63F00C1F34011024042EA74
:103EE000413242F07F4222609A202968019089087D
:103EF00001F0010102910F22012100914046FDF7DE
:103F0000D2FB50B9286840F48030286051212972D2
:103F100048F21E00E8811E27A3E00928FCD0A07CFF
:103F2000152803D248F22D01E98108E0D8F80C00E9
:103F3000446924B13078002305220121A04700F014
:103F40009BF800F08280688941040BD008207070D3
:103F50006989C1F30E012D292EBF2D276F89C7F363
:103F60000E077EE0072070707BE089460120FCF799
:103F700056FE99F80020E98D82423ED1C80B3CD113
:103F8000C1F30230002838D095F82E0000F01F0051
:103F90000F2832D1286B90F802A00AF01F010129E6
:103FA0003DD1CAF38110002839D0E88DC0F38111CA
:103FB000404600F081F9D8F80C104869A0B1CAF366
:103FC0008110012810D103A9404601F0AFF958B97A
:103FD000D8F80CC03078DCF8147003ABCAF3811247
:103FE0000121B8471420A07400F044F802D1707089
:103FF000002714E000F039F811E001F01F0110294A
:1040000013D10020E88100F037F802D1707000274A
:1040100001E000F02AF859213078FCF7C5FA7278EF
:1040200049464046FDF77AFF1BE0E889B0F5004FAE
:1040300017D100F01FF8D8F80C00446909D124B159
:104040003078002304220121A0470320707000274C
:1040500007E024B13078002302220121A04700F0BC
:1040600004F838460CB0BDE8F087072070700027D0
:104070002F7270470021E981D8F804000168C1F36C
:104080000220032870472DE9FC410225074607F26C
:104090003F24884660789D2807F511760ED00CD312
:1040A0009F284CD035D3A12874D067D3A32800F023
:1040B0008E807AD3A42800F0C980D3E0796808689C
:1040C00000F4B850B0F5985F1FD1B9682078CA6A7B
:1040D00090470A2802D00D2807D00DE09E2060707E
:1040E000316841F480513160BCE00020009003232E
:1040F0000C2200F0DDF8B5E000200090032304223C
:1041000000F0D6F80320607001E000F0B9F8002557
:10411000A8E0002000909E23032200F0C9F80028A8
:10412000F6D100F0A8F830B19F20607048F29601F7
:104130007181962501E0A02060703F2182E07089A6
:10414000B0F5004F7BD098F80010112915D13846F2
:10415000FDF704FF062810D100F0A5F8B868026B3F
:1041600012B120780021904700F07FF82078FCF70A
:104170001BFA0020F08187F89E0473E0B868026B98
:1041800012B1207801219047A1206070002187F8AA
:104190009E1467E0002000900323062200F088F8B8
:1041A00000285FD100F061F84CE000200090A323CC
:1041B0000B2200F07DF8002854D1306840F4805084
:1041C000306048F21D0171811D253E213AE098F8CA
:1041D000000011282FD13846FDF7C0FE032806D075
:1041E000042815D00C280FD0102815D023E000F09B
:1041F00042F8002819BF9F206070A021617062788A
:1042000000F052F83F2113E000F049F840210FE0A0
:1042100000F045F841210BE000F02DF810B9A42082
:10422000607001E000F033F8627800F03DF843215F
:104230002078FCF7B9F97089B0F5004F12D100F081
:1042400026F81C212078FCF7AFF90BE0B868026B68
:1042500012B120780121904700F012F848F22D00A9
:104260000025F0812846BDE8F681306820F48050B2
:1042700030604221704778680168C1F3C0307047F0
:10428000306820F4805030600321617070473168DD
:1042900021F4805131600320607000257047306840
:1042A00020F480503060032241463846FDF736BE88
:1042B00000213846FDF7EEB942681378D27803F052
:1042C0000303994228BF194661F383024168CA700B
:1042D000C2F3810190F83F0201F095B970B5DFF8A3
:1042E000F022034652F8234023685D681022C5F38C
:1042F0004023002B1EBFE368002B022901D10222BC
:1043000027E004F26A252B7813B900F04AF80BB9BC
:1043100003221EE0697011B1012908D019E061681B
:104320000B68C3F30221032913D17D210CE06168DE
:10433000096840F204730B40B3F5827F1CBFC1F3E0
:104340000221032905D105212970A268916A8847B5
:104350000022104670BD70B500F032F9002B14BF7A
:10436000022902221BD004F26A252B7813B900F02F
:1043700018F80BB9032212E0C6F30223032B0ED167
:104380007F2369702B7031B1012908D1D4F8441210
:10439000C1F3004119B1A1688A6A90470022104612
:1043A00070BD63681E68C6F300337047F8B500F04F
:1043B000E1F8EC681023002C14BF022902231FD05F
:1043C00005F26A26347824B96C682768C7F300348C
:1043D0000CB9032314E0C7F30224032C10D1812469
:1043E00071703470A5F8942431B1012908D1D5F841
:1043F0004412C1F3004119B1A9688A6A90470023A9
:104400001846F2BDF8B500F060F80DB902241DE0C1
:1044100006F26A273D7815B900F051F80DB903246A
:1044200014E0CCF30225032D10D100F042F86DB159
:10443000822500F033F829B1022900D006D2C2F358
:10444000004119B1B1688A6A904700242046F2BD44
:10445000F8B500F03AF80DB902241DE006F26A271B
:104460003D7815B900F02BF80DB9032414E0CCF316
:104470000225032D10D100F01CF86DB1832500F04A
:104480000DF829B1022900D006D2C2F3004119B1BA
:10449000B1688A6A904700242046F2BD79703D7069
:1044A000A6F89424D6F8442263F38812C6F844226E
:1044B0007047756895F800C0CCF3C0057047756803
:1044C000D5F800C0CCF300357047414C054654F890
:1044D0002560F56810247047F8B5FFF7F6FF0DB9B1
:1044E00002241EE006F26A273D7815B9FFF7E7FFC0
:1044F0000DB9032415E0D6F84452C5F300450DB9B3
:104500000D000ED1CCF30225032D0AD179700024C1
:104510008521397006F592610A608B80B1688A6ADC
:1045200090472046F2BD70B500F024F8EB681024E7
:1045300003B109B102241BE005F26A23197821B9FD
:1045400069680E68C6F3003109B9032410E0C6F3A8
:10455000022103290CD10021597084241C7005F517
:10456000926106230B608A800024A9688A6A9047BA
:10457000204670BD164B044653F82450704770B562
:1045800000F01EF80BB9022218E004F26A252B781D
:1045900013B9FFF706FF0BB903220FE0C6F3C033D0
:1045A0000BB90B000AD1C6F30223032B06D16970A5
:1045B00086212970A268916A88470022104670BD42
:1045C000034A034652F82340E36810227047000074
:1045D000FC010020F8B500F5137200F50974D18CC8
:1045E000090B01F007014B1E2376517F00296ED184
:1045F00010E0936A03EB81039D79DE7905EB0627D2
:104600001D7A5B7A07EB054707EB036744F82170D7
:10461000491CC9B2257EA942EBDB90F88C6406F0F8
:104620001F06761E48F2190348F20F010DD0761EC0
:1046300029D0761E2CD0761E2FD0761E32D0761E34
:1046400035D00A3E0F2E3DD9F1BD50231370456879
:10465000D0F88C342E78C3F34133C6F34015AB4207
:1046600005DAD0F88C345B0B03F0030303E04368F6
:104670001D78C5F3401345682E7863F345162E70F8
:104680005180752122E052201070518076211DE06A
:10469000532010705180782118E0542010705380FE
:1046A000792113E05520107053807A210EE0C06804
:1046B000C36A2BB129002268E07E18BF0121984708
:1046C000032103E05A20107051807B212177F1BD36
:1046D0002DE9FB47044604F50F7799B097F804C01D
:1046E000ACF1750007284FF0020903D209781429AC
:1046F00040F07884052303200422BCF1750F04F2F6
:10470000692804F28C464FF0010A4FF47F4148F2C9
:104710001E054CD0BCF1760F00F0A680BCF1770FDF
:1047200000F00A81BCF1780F00F05981BCF1790FDB
:1047300000F0A681BCF17A0F00F0C281BCF17B0FC2
:1047400000F0ED81BCF17D0F00F02382BCF17F0F02
:1047500000F06C82BCF1810F00F0A882BCF1820FE6
:1047600000F00C83BCF1830F00F05583BCF1840F83
:1047700000F02284BCF1850F00F0A083BCF1870F0C
:1047800000F02682BCF1890F00F06282BCF18B0F31
:1047900000F0B182BCF18C0F00F00083BCF18D0FF2
:1047A00000F05483BCF18F0F00F0A8830CE100F0FF
:1047B000B1FC5BD030686AF3040000F086FC10B1F5
:1047C00000F051FC44D0E06800281CBF0268002AB9
:1047D0003ED03068000CB0F57F4F39D1F87808A989
:1047E0009047032802D00F2803D031E000F086FC68
:1047F00030E000F0A0FC11A8089941600425099957
:1048000081600A99C1609DF84010C1F3400111B167
:104810000C99016105259DF84010C1F3C00121B13B
:104820000E9940F825106D1CEDB29DF84010C1F3B3
:10483000001181B19DF84010C1F3C00119B10021F0
:1048400040F825106D1C0F9940F825106D1C02E0F2
:1048500000F058FC30603168002003221191029072
:104860000192009511AB8EE100F054FC00F09F83A3
:10487000306869F3040000F028FC10B100F0F3FB8D
:104880004ED0E0684368002B4AD03068000CB0F589
:104890007F4F45D1F87804F23D2203A998470328B9
:1048A0003BD00F283CD100F046FC1C2104A815F099
:1048B0004DFD0025002217E0DDF80CC051F8203036
:1048C0003CF812E043EA0E430BE06D1C5008D3079E
:1048D00005A9F1D5039B51F820C033F8123043EA03
:1048E0000C0341F82030521C7878824238BF0C2AE1
:1048F000EBD3401B7870E8B20C2809D131680491E1
:1049000000207722072102900192009104AB53E02E
:104910002D066D0E3068AD1C05E000F0EFFB01E0E8
:1049200000F0F0FB3060049003210020EDB2029013
:104930000191009504AB26E100F0E8FB96D03068C9
:1049400069F30400306003AA00F093FB6AF3871157
:10495000316004A9E368F8785D68A8471C2105A8C0
:1049600015F0F4FC0022002315E0049E51F82050BD
:1049700036F8136045EA06450AE0521C5808DD0780
:1049800006A9F2D5049D51F8206035F8135035433F
:1049900041F820505B1C7878834238BF0C2BECD355
:1049A000801A7870D0B20C280FD10021772007220E
:1049B00002910190009205AB98F800100F2200F0D0
:1049C0004FFC48F20F0078820CE31206520E921C44
:1049D00000210320D2B20291019000924EE0798A28
:1049E0000125B1F5004F6DD0316860F3040100F08E
:1049F0001FFB32680178C1F3401000F02EFB6068A5
:104A00000178C1F3C00010B100F02DFB2CD0E0689C
:104A1000D0F808C0BCF1000F26D03168F87803AB9D
:104A200004AA090CE047032802D00F2805D01BE098
:104A3000326842F0C002326019E09DF80C0098B173
:104A4000072811D200F077FB06AB00209DF80C1070
:104A500088420CD2049A116843F820106D1C049906
:104A60000A1D0492401CF1E700F04CFB306000206E
:104A700031680591032202900192009505AB82E016
:104A800000F044FB1ED0306862F3040000F01DFB10
:104A9000002834D1E168C868002830D000F08AFBD3
:104AA000DD68A847032827D00F2828D100F043FB52
:104AB000C0F30220B96821F4E07141EA801119E0E5
:104AC00000F024FB00F07382306863F3040000F010
:104AD000FCFAA0B9E168086988B100F06BFB1D69B8
:104AE000A847032808D00F2809D100F024FBB96893
:104AF00021F4E071B96005E000F000FB01E000F096
:104B000001FB30600021029103220192CDF800A048
:104B1000334698F800100F2200F049FB62E200F0E3
:104B2000F9FACFD0E068D0F834C0BCF1000F1ED045
:104B30003178F87804F509733A4601F01F01E0472F
:104B4000032811D00F2812D100F0F5FA002039788F
:104B500088420FD204F509726D1C52F8201004AA85
:104B600042F82010401CF2E700F0C8FA01E000F023
:104B7000C9FA3060316800200322EDB2039102903F
:104B80000192009503AB98F800100F2200F068FB2B
:104B900028E230686AF304003060334640F4004095
:104BA000306060680278C2F34010326800F055FA55
:104BB00022F4E062326022F0C002326061F31F42F0
:104BC0003260872100F0E8FA0028E1D150208DE022
:104BD00000F01EFA00F012FA4ED100F00BFA4BD1A1
:104BE00000F004FA4DD000F017FA01BFD4F87402B7
:104BF000857805F01F0101293ED1C5F381100028F9
:104C00003FD0E168486900280FD0C5F38110012822
:104C10000BD108A9204600F089FB002805D100F03F
:104C20000DFAD5F814C008ABE047B0E100F060FA27
:104C300069F3040030600F2200F01BFA21F4E061F8
:104C40003160892100F09BFA002853D152204DE0B9
:104C500000F0DEF900F0D2F90ED100F0CBF90BD163
:104C600000F0C4F90DD000F0D7F901BFD4F87402F8
:104C7000857805F01F01022940F01981C5F38110E4
:104C8000002800F01481E16888690028CDD0D4F8AC
:104C90007402811DF87808AA00F0EEFB00F0CEF94E
:104CA000D5F818C008ABE047532157E0316821F030
:104CB000C0013160334660F3040131600F22308956
:104CC00060F31F4100F0B4F90178C1F3401031687E
:104CD00021F4C04141EA4031316021F4E0613160AA
:104CE0008B2100F04CFA002804D1532038747D82C7
:104CF0004FF01E0976E100F08BF900F07FF931D119
:104D000000F078F92ED1C1F3023058B300F084F9E5
:104D100001BFD4F87402857805F01F01032921D161
:104D2000C5F38110F0B1E168C869002819D0D4F842
:104D300074023168821DF87808AB090C00F0D1FBD1
:104D4000E66800F07EF9D6F81C8008ABC5F3811246
:104D5000C047C5F38110012803D15421F878FBF72F
:104D600023FC14E100F04EF940F0A4801A990322CC
:104D70002046FDF7D3F80020788210E100F0B8F962
:104D800062F30400306000F085F98C2100F004FA31
:104D90000028AFD15420387434214EE000F038F9A7
:104DA00000F02CF94FF0340A07D100F023F904D1B8
:104DB00000F01CF97BD000F02FF978D100F045F914
:104DC000042874D1C5F38110002870D001280AD0BE
:104DD00012D303280AD03FBFB86820F4E070B8604F
:104DE0004FF0360A08E04FF0350A05E0B86820F4C5
:104DF000E070B8604FF0370AF8785146FBF7D4FB03
:104E0000E168086A002805D000F089F9D5F820C0CB
:104E10001B0CE047BBE0306820F0C000306063F35B
:104E200004003060334600F035F98D2100F0B4F90C
:104E300000280AD1552038745521F878FBF7B4FBC7
:104E400048F2320078824FF03209CBE000F0E0F80F
:104E500000F0D4F82BD100F0CDF828D1C1F3023006
:104E600028B300F0D9F822D100F0EFF805281ED1C0
:104E7000C5F38110D8B1012804D009D3032805D087
:104E800002D305E0562104E0572102E0582100E05A
:104E90005521F878FBF788FBE168486A002876D04E
:104EA00000F03DF9D5F824C01B0CE0476FE000F09E
:104EB000A9F872D000F02AF9C7D178E000218DF866
:104EC0000C1000F03DF9D0F830C0BCF1000F08D054
:104ED00005A8009003AB327800F0B3F802F01F028F
:104EE000E04700F09FF88F2100F0ADF9002876D15F
:104EF0005A2038747D824FF01E0970E0B4F87202B7
:104F0000000B00F00700411E8DF8041000F080F83F
:104F100000F074F83ED100F06DF83BD100F066F877
:104F200038D000F079F835D1D4F8740282787068FE
:104F300002F01F0181422DD1C2F3811050B3E1680C
:104F4000886B20B3002014E0D4F8743281005D181F
:104F5000083395F806C095F807E0595C6B7A0CEBBE
:104F60000E2606EB014602A906EB036641F8206017
:104F7000401C9DF804108842E6D302A8009001ABC3
:104F800000F05EF8D5F838C002F01F02E04700F0EC
:104F900018F927E000F036F806D100F012F9F87899
:104FA0005921FBF701FB1DE000F0B0F81AD10321F5
:104FB00039714FF0000915E000208DF80C0000F069
:104FC000BFF8836A1BB1F87805AA03A9984700F0D7
:104FD00029F8032100F037F908B95A203874002164
:104FE00088F8011048461CB0BDE8F087C1F30230D4
:104FF00000287047B4F87212C80B70471A990A78E3
:105000008242704794F8720200F01F001028704727
:1050100098F80000FBF703BE94F8720200F01F003E
:105020000F2870479DF80C00401C8DF80C0070474D
:10503000316041F40041316060687047C5F381120E
:10504000E56898F80010F878704700203874D4F8B4
:1050500074128D7805F01F00704722F4C04242EAB6
:105060004032326070476068017801F00301012925
:10507000704761F31F40306040F40040306060686A
:105080000178C1F34010316821F4C04141EA403158
:1050900031607047318961F31F40306040F4004057
:1050A0003060606832680178C1F3401022F4C04279
:1050B00042EA40323260B8683168C0F3821021F4AD
:1050C000E06141EA002131607047306040F4004007
:1050D0003060606832680178C1F3401022F4C04249
:1050E00042EA4032326060680178C1F3C000704724
:1050F000306820F0C000306033467047306840F0C0
:10510000C0007047306869F387107047788AB0F53F
:10511000004F7047788A0125B0F5004F704730681E
:10512000C5F38112C0F302200090E568336898F857
:105130000010F878704730686AF387103060704765
:10514000306820F0C0003060716861F304003060A6
:10515000318961F31F40306040F400403060606886
:105160000178C1F34010316821F4C04141EA403177
:1051700031606AF30A2131600491E0687047B868D1
:105180000191800800F001000290CDF800A02046B7
:1051900098F80010FCF787BAB8680191800800F011
:1051A00001000290CDF800A00F2298F800102046D0
:1051B000FCF779BA3068E368C0F30222010CF87892
:1051C00070470020788203221A992046FCF7A6BE79
:1051D00070B514298CB0044633D1E06800281CBF98
:1051E000C06B00282DD000218DF80C1006ABE568AF
:1051F00094F83F02EE6B03AA04A9B0479DF80C1087
:105200000498491C20F400408DF80C10049004F51B
:10521000117604990591032130680191800800F00E
:105220000100029004F269259DF80C00009005AB86
:1052300029780F2200F014F808B9592030720021A3
:1052400069700CB070BDB8680191800800F0010071
:10525000029004AB9DF80C0000900F2298F800100B
:105260002046FCF720BAF8B5054605F50F76286804
:105270004168C1F3401000281CBFE86800284BD0EB
:10528000B16B8878CA780B79497900EB022000EB82
:10529000034000EB01600146CA0B12F0010212D07C
:1052A000012A02BFC5F88C14C0F38110002833D145
:1052B00028684168C1F3002000282DD02846BDE8A9
:1052C000F240FFF787B9F08E000B00F00700421E96
:1052D0003270002005F509730FE0B26B02EB80021B
:1052E0009479D77904EB0727147A527A07EB0444B0
:1052F00004EB026243F82020401C32789042ECD349
:10530000E86800281CBF046C002C05D0F0783246F9
:10531000A04708B9032006E06868017801F003019E
:10532000022901D101203071F1BD0000F8B5B0F8BB
:105330007232D0F874221B0B03F007035D1E0024A9
:10534000921DEEB2032EC0F08680137856789778BF
:1053500003EB0623D67803EB074303EB06630B60EE
:105360001779567907EB0626977906EB0747D67922
:1053700007EB06664E60177A92F809C007EB0C2E11
:10538000977A92F80BC00EEB074707EB0C678F601C
:105390000826EF1E91F8205005F0E00EFDB2002D1A
:1053A00081F820E050D0DB0E7D1E03F00703052BB3
:1053B00051D8DFE803F01D0303090F154EF0080371
:1053C00000F04CF88B6110E04EF0010300F046F85D
:1053D000CB600AE04EF0040300F040F84B6104E0BB
:1053E0004EF0020300F03AF80B612F46FBB25BB3BC
:1053F000B0F87232C3F38113022B25DB0B68DB0D8F
:1054000013F0070320D05B1E022B24D891F8203024
:10541000C3F3C003002B1ABF08367F1E361DFFB230
:10542000012F18D191F8203043F01003324481F855
:1054300020301578537805EB03269578D27806EB63
:10544000054606EB0266CE61512190F83F02FBF75C
:10545000ABF82046F2BD02241B21F6E781F820308C
:105460000C26137B577B03EB0727937B07EB034348
:10547000D77B03EB07637047F0B52D4B53F8200043
:10548000B0F872321B0B03F007035B1E0024DBB283
:1054900000251476547600F016F819BF761C16769F
:1054A00001255576A41CE4B200F00DF819BF761C56
:1054B000167601255576A41CE4B2B4EB830F01D215
:1054C0002800E8D0F0BD4E1C085D375D00EB0726D4
:1054D000107E22F81060167E374632F8170000283A
:1054E0007047F0B5124C54F82000B0F8724299831E
:1054F000240B04F00704601E0024C0B21C601619BF
:10550000155D717805EB01271119241D8D78CE7872
:10551000196807EB054703EB810507EB06676F602A
:10552000E4B21E68761CB4EB800F1E60E7D3F0BDBA
:10553000FC01002010B5DFF8AC2B52F82030D97BED
:1055400011B1D97B4C1EDC7352F82010087B08B1D6
:10555000401E087310BDF8B505460E464FF499700D
:1055600014F024FF1627040017D04FF4997114F09B
:10557000EDFE00F0AEFBDFF86C0B294640F8214051
:105580000122009204F12A0270680FF6C831C0F3BC
:10559000800328460CF036F907463846F2BD40F243
:1055A0009630704730B5DFF83C4B54F82050ED8B07
:1055B00061F3082554F82010CD8362F3451554F8A3
:1055C0002010CD8363F3871554F82000C58330BDC8
:1055D00010B500F00BF861F30824DC8310BD10B5A2
:1055E00000F004F861F34514DC8310BDDFF8F42A01
:1055F00052F82030DC8B704710B5FFF7F7FF61F3EE
:105600008714DC8310BD20B5DFF8D82A52F820308B
:105610001D8C61F387151D845B8C52F8200061F3AB
:105620008713438420BDFEB50446DFF8B80A26463A
:1056300050F826703878012500F01801182939D162
:1056400000F0EF0038701A20398DC1F3C322521CCC
:105650004243C1F308039A4205DB387800F0F700B3
:105660000025387026E048F2FF700840C90A491C3E
:1056700040EAC12000F47E4040F404403885B8710F
:10568000000AF8710020787238727200521CD0B291
:105690000DF03CFD0028F8D000200621019000917B
:1056A0003B1DBA7802F01F0242F080020021204622
:1056B00000F04AF92846FEBD0CF07FB910B504464B
:1056C0000CF088F9DFF81C1A51F82420002010741F
:1056D00010BD0CF0A1B90CF0ADB9FBF7F0BB0CF0AC
:1056E00087B92DE9F14F82B01446DFF8F8099DF82B
:1056F000082050F82270DFF8F09998464FF0FF35F7
:1057000007EB41061FFA88F0D9F800C0797CA0F1B8
:10571000040AA8F1040B31B1012900F09980032992
:1057200000F0F280E9E038780FF6C01300F0FD00D9
:105730003870002200F0FB00387000F0DF00387095
:105740000A2000909DF80810D9F800500620A847BC
:10575000002179819DF80800FBF759FC18B9788978
:1057600040F4004078819DF80800FBF750FC0128C8
:1057700002D0BAF11A0F4ED878896BF308000021D5
:1057800078817974A8F102087889F28BC00B1FFA2E
:1057900088F504D148F6FF700240F28335E06908CD
:1057A00005EB91734FEA08609B08800EA5EB83011F
:1057B00060F30E320129F28304D01CD303290ED0EA
:1057C00006D318E0E31CC2F30232002503F822508E
:1057D000221DF38BC3F30233002502F82350F28B12
:1057E000C2F3023204EB820300225A710123F28BCE
:1057F00063F30E32F28301B101210818F18B60F3DB
:105800000E31C1F30235F183AD000C20AD1C0090C8
:105810000FF6E40312E038780FF6EC0340F00400D2
:1058200038700321788979746BF3080078811E251C
:10583000F08B40F4E040F0830D2000909DF80810BC
:10584000D9F800C000220620E04700F076F854E0C6
:105850000D209DF808103D8D0FF6BC03009000222E
:105860000620E047ED0A05F00F051A2010FB05F0B1
:105870000090211D01441A22201D14F06AFD691CAC
:105880001A2041438A4531DA00227A81E802788180
:10589000032140F40040788179746BF3080078812B
:1058A000231D0098AAEB0005284601E05A54401C2D
:1058B000C1B21A29FADBA81C5FFA80FA0AEBDA7186
:1058C0008908BAEB810118BF01210AEBDA7001EBFC
:1058D000A001F08B61F30E30F083C0F3023538780D
:1058E000AD0000F0FB00AD1C387000E01E2500F09C
:1058F00024F8387800F0DF00387015F1010F3FF41C
:1059000001AF2846BDE8FE8F1220009000229DF8CE
:1059100008100FF614030620E04738780025C0F37E
:10592000401008B101257D743878C0F3400000288C
:10593000E7D0002001257874E3E77889A0707989A1
:10594000090AE170704700002DE9FE4F0746DFF8B5
:10595000948782B0BB4658F82B404FEA4B008946EB
:10596000401C04EB09058DF804001AE042F21071A6
:105970000DF05AFB00F0A2F9B3B238460BF0E5FF88
:1059800018B158F82B100F200874B6B2009639469B
:10599000DFF85467049B9DF80820D6F800C0022069
:1059A000E0473846FBF733F900283ED0EFF3108A82
:1059B00072B63846FBF717F9002804BFA07D00280F
:1059C00004D0002161750F2000F074F98AF310886B
:1059D000207C112800F26881DFE810F0120033000B
:1059E0003D006601440029004D0087006601660104
:1059F000D100E60005010B01660151013B01570191
:105A000000216174FF2060759DF83C10012901BFE1
:105A100004F11E0030F81910C1F38110022814BFE0
:105A20000620052000F046F9BBE7102037E104F11D
:105A30001E0030F81910C1F340100028F2D10420E4
:105A4000F0E738460BF0B9FF58F82B100220087425
:105A500013202073A5E7207B58B9062158F82B00A6
:105A600001749EE738460BF0D7FF012808BF0620D7
:105A7000D8D0092612E104F11E009DF80C1030F870
:105A8000190061F3040004F11E0104F11E0221F863
:105A90001900C0F30E009DF80C10C90940EAC1308E
:105AA00022F8190004F11E010020607331F819106A
:105AB000C80B09D1BDF83800801E800860F30E3194
:105AC00004F11E0020F819109DF80C000D2802BFEB
:105AD00004F11E0131F8190010F4704F03D10020B9
